:100000000C9462000C948A000C948A000C948A0070
:100010000C948A000C948A000C948A000C948A0038
:100020000C948A000C948A000C948A000C948A0028
:100030000C948A000C948A000C948A000C948A0018
:100040000C94A5050C948A000C9473050C944D0532
:100050000C948A000C948A000C948A000C948A00F8
:100060000C94EF050C948A00000000002400270087
:100070002A000000000023002600290000000000E4
:10008000250028002B0004040404040404040202D4
:100090000202020203030303030301020408102007
:1000A0004080010204081020010204081020000012
:1000B0000008000201000003040700000000000027
:1000C00000000E0711241FBECFEFD8E0DEBFCDBF6A
:1000D00023E0A2EBB1E001C01D92A933B207E1F722
:1000E00011E0A0E0B1E0E2E0F9E102C005900D927C
:1000F000A23BB107D9F710E0C2E6D0E004C02197D7
:10010000FE010E94870AC136D107C9F70E9456072F
:100110000C947F0C0C94000008950895AF92BF9248
:10012000CF92DF92EF92FF920F931F93CF93DF93C3
:100130006C017B018B01040F151FEB015E01AE18F2
:10014000BF08C017D10759F06991D601ED91FC9114
:100150000190F081E02DC6010995892B79F7C50141
:10016000DF91CF911F910F91FF90EF90DF90CF9093
:10017000BF90AF900895FC014481558160817181E9
:1001800089E293E00C948E00FC01538D448D252F61
:1001900030E0842F90E0821B930B541710F0CF9621
:1001A000089501970895FC01918D828D981761F053
:1001B000A28DAE0FBF2FB11D5D968C91928D9F5F6A
:1001C0009F73928F90E008958FEF9FEF0895FC0149
:1001D000918D828D981731F0828DE80FF11D858DFC
:1001E00090E008958FEF9FEF0895FC01918D228D8F
:1001F000892F90E0805C9F4F821B91098F73992714
:10020000089580E892E00E94F50021E0892B09F42E
:1002100020E0822F089580E090E0892B29F00E9451
:10022000010181110C9400000895FC01A48DA80F18
:10023000B92FB11DA35ABF4F2C91848D90E0019628
:100240008F739927848FA689B7892C93A089B18948
:100250008C91837080648C93938D848D981306C0E9
:100260000288F389E02D80818F7D80830895EF924D
:10027000FF920F931F93CF93DF93EC0181E0888F60
:100280009B8D8C8D98131AC0E889F989808185FF30
:1002900015C09FB7F894EE89FF896083E889F989D2
:1002A00080818370806480839FBF81E090E0DF91D4
:1002B000CF911F910F91FF90EF900895F62E0B8D27
:1002C00010E00F5F1F4F0F731127E02E8C8D8E11E2
:1002D0000CC00FB607FCFACFE889F989808185FF49
:1002E000F5CFCE010E941501F1CFEB8DEC0FFD2F64
:1002F000F11DE35AFF4FF0829FB7F8940B8FEA8904
:10030000FB8980818062CFCFCF93DF93EC01888D12
:100310008823B9F0AA89BB89E889F9898C9185FD80
:1003200003C0808186FD0DC00FB607FCF7CF8C910E
:1003300085FFF2CF808185FFEDCFCE010E941501B0
:10034000E9CFDF91CF910895833081F028F4813097
:1003500099F08230A9F008958730A9F08830C9F06B
:100360008430B1F4809180008F7D03C08091800043
:100370008F7780938000089584B58F7784BD08952A
:1003800084B58F7DFBCF8091B0008F778093B000D4
:1003900008958091B0008F7DF9CFCF93DF93282F00
:1003A00030E0F901E255FF4F8491F901E656FF4F25
:1003B000D491F901EA57FF4FC491CC2389F0811100
:1003C0000E94A401EC2FF0E0EE0FFF1FE458FF4F56
:1003D000A591B4918FB7F894EC91DE2BDC938FBF8D
:1003E000DF91CF910895CF93DF93282F30E0F9016B
:1003F000E255FF4F8491F901E656FF4FD491F90180
:10040000EA57FF4FC491CC23A1F081110E94A401AF
:10041000EC2FF0E0EE0FFF1FEE58FF4FA591B491C7
:10042000EC91ED2381E090E009F480E0DF91CF9141
:10043000089580E090E0FACFCF93DF9390E0FC0145
:10044000E656FF4F24918A579F4FFC0184918823E1
:10045000D1F090E0880F991FFC01E859FF4FA5915A
:10046000B491FC01E458FF4FC591D491623071F40E
:100470009FB7F8943C91822F809583238C93E881D9
:100480002E2B28839FBFDF91CF9108958FB7F894CB
:10049000EC912E2B2C938FBFF6CF3FB7F894809121
:1004A000600290916102A0916202B091630226B550
:1004B000A89B05C02F3F19F00196A11DB11D3FBF9C
:1004C000BA2FA92F982F8827BC01CD01620F711D6B
:1004D000811D911D42E0660F771F881F991F4A9565
:1004E000D1F708958F929F92AF92BF92CF92DF92F1
:1004F000EF92FF924B015C010E944D026B017C0167
:100500000E944D026C197D098E099F09683E734057
:1005100081059105A8F321E0821A9108A108B1088C
:1005200088EEC80E83E0D81EE11CF11C81149104F2
:10053000A104B10429F7FF90EF90DF90CF90BF9016
:10054000AF909F908F9008952FB7F89460915C02C0
:1005500070915D0280915E0290915F022FBF0895BD
:1005600085ED8093BC008091BC0084FDFCCF10928F
:100570006A02089520911402260F3327331F213277
:100580003105ECF420916A02FC0190E080E0243017
:1005900069F082E00895A09114022191AC014C50C1
:1005A0005E4FA40FB52FB11D2C930196861798F3BB
:1005B00080911402680F6093140280E0089581E036
:1005C00008950895E0916E0280916D02E81730F46D
:1005D000F0E0EC52FE4F808190E008958FEF9FEFA6
:1005E000089590916E0280916D022FEF3FEF981762
:1005F00048F4E92FF0E0EC52FE4F208130E09F5F9D
:1006000090936E02C901089580916D0290916E02DF
:10061000891B990B0895CF92DF92EF92FF920F936F
:100620001F93CF93DF937C01CB018A012091D301EB
:10063000222389F0EB016B01C40ED51ECC15DD051C
:1006400069F06991D701ED91FC910190F081E02D65
:10065000C7010995F3CF642F0E94BA02C801DF9148
:10066000CF911F910F91FF90EF90DF90CF90089561
:10067000CF93DF931F92CDB7DEB769832091D3016B
:100680002223F9F020916B02203258F021E030E073
:10069000FC013383228390E080E00F90DF91CF91C3
:1006A000089580916C02E82FF0E0ED54FE4F99819F
:1006B00090838F5F80936C0280936B0281E090E067
:1006C000ECCF61E0CE0101960E94BA02F7CFCF9342
:1006D000FC01C48121E02093D301C093B2011092A8
:1006E0006C0210926B028385682B8DE193E00E946F
:1006F000380390916B02913208F03FC080916A02FA
:100700008111FCCF82E080936A0281E080936902CC
:100710008FEF809337021092590290935802A3EB07
:10072000B1E0E8E3F2E080E098132FC010925A02A3
:1007300080915A02CC0FC82BC0935A028091680254
:10074000813039F51092680280915A028093BB0083
:100750008091BC0083FDF8CF85EC8093BC00809134
:100760006A028230E1F3809137028F3F31F080914D
:100770003702803211F08091370210926C02109291
:100780006B021092D301CF9108952D9121938F5F29
:10079000CBCF85EEE2CF089590E080E008950F93EF
:1007A0001F93CF938C01C62F0E9467036C2F646048
:1007B000C8010E9467036C2F6B7FC8010E9467030A
:1007C00083EC90E00197F1F7CF911F910F9108957D
:1007D0000F931F93CF93DF938C01D62FC42F607F8D
:1007E000642B0E94CF0380E1D89FB00111246C2BB1
:1007F000C801DF91CF911F910F910C94CF03CF933C
:10080000DF93CDB7DEB728970FB6F894DEBF0FBEE3
:10081000CDBF98E0E8E0F1E0DE01119601900D9285
:100820009A95E1F790913103961708F46FEF262F10
:1008300030E0220F331F41E050E04C0F5D1F240FCA
:10084000351FF9016081680F606840E089E293E03C
:1008500028960FB6F894DEBF0FBECDBFDF91CF91C3
:100860000C94E80341E00E94E80381E090E00895E1
:100870008F929F92AF92BF92EF92FF920F931F932E
:10088000CF93DF93CDB7DEB7A1970FB6F894DEBF55
:100890000FBECDBF7C01FA01CB0119A2223008F4B2
:1008A0002AE08E010F5D1F4F822E912CB12CA12CBE
:1008B000BF01A50194010E94650AF901CA016A30CD
:1008C00074F5605DD8016E938D01232B242B252BAD
:1008D00079F790E080E0109789F0FD010190002009
:1008E000E9F73197AF014A1B5B0BD701ED91FC9102
:1008F0000280F381E02DB801C7010995A1960FB6DA
:10090000F894DEBF0FBECDBFDF91CF911F910F9145
:10091000FF90EF90BF90AF909F908F900895695C8B
:10092000D1CFCF92DF92EF92FF92CF93DF93EC0182
:100930006A017B0161E080E00E94FF03CE010E941A
:10094000BB002AE0B701A60189E293E0DF91CF91D5
:10095000FF90EF90DF90CF900C9438044F925F920D
:100960006F927F92AF92BF92CF92DF92EF92FF92FF
:100970000F931F93CF93DF935C012A013B01E901A1
:10098000670161E080E00E94FF03C5010E94BB0097
:100990002AE0B301A20189E293E00E943804CE016B
:1009A0000E94BB002AE0B801A60189E293E0DF9132
:1009B000CF911F910F91FF90EF90DF90CF90BF905C
:1009C000AF907F906F905F904F900C943804CF92CF
:1009D000DF92EF92FF926B017C0160E080E00E9469
:1009E000FF032AE0B701A60189E293E0FF90EF90B0
:1009F000DF90CF900C943804FC01808191810097A6
:100A000011F00C94290B0895EF92FF920F931F930E
:100A1000CF93DF93EC017B01198218821B821A822B
:100A20001D821C82FB0101900020E9F731978F01A4
:100A3000061B170BB8016F5F7F4F90E080E00E94AC
:100A4000B20B0097B9F0998388831B830A832C81AA
:100A50003D81232B11F4FC0110821D830C83B7010F
:100A600088819981DF91CF911F910F91FF90EF9035
:100A70000C94780C88819981009711F00E94290BC1
:100A8000198218821D821C821B821A82DF91CF91EB
:100A90001F910F91FF90EF9008951F920F920FB644
:100AA0000F9211242F933F934F935F936F937F93F4
:100AB0008F939F93AF93BF93EF93FF9380E892E060
:100AC0000E941501FF91EF91BF91AF919F918F917E
:100AD0007F916F915F914F913F912F910F900FBE3A
:100AE0000F901F9018951F920F920FB60F9211241E
:100AF0002F938F939F93EF93FF93E0919002F09148
:100B000091028081E0919602F091970282FD1BC0D4
:100B10009081809199028F5F8F7320919A02821742
:100B200041F0E0919902F0E0E058FD4F958F8093FD
:100B30009902FF91EF919F918F912F910F900FBE8E
:100B40000F901F9018958081F4CF1F920F920FB6CF
:100B50000F9211242F933F938F939F93AF93BF9343
:100B600080915C0290915D02A0915E02B0915F0263
:100B700030915B0223E0230F2D3758F50196A11D1C
:100B8000B11D20935B0280935C0290935D02A09361
:100B90005E02B0935F028091600290916102A09129
:100BA0006202B09163020196A11DB11D80936002A3
:100BB00090936102A0936202B0936302BF91AF91E0
:100BC0009F918F913F912F910F900FBE0F901F908B
:100BD000189526E8230F0296A11DB11DD2CF1F92B2
:100BE0000F920FB60F9211242F933F934F935F9361
:100BF0006F937F938F939F93AF93BF93EF93FF93E5
:100C00008091B900887F803609F44AC0F0F58832B7
:100C100009F4A7C018F5803109F49BC0B8F4882303
:100C200009F4F9C0883009F494C0FF91EF91BF91A5
:100C3000AF919F918F917F916F915F914F913F9174
:100C40002F910F900FBE0F901F901895883109F4C7
:100C500088C0803251F78093370214C0803409F481
:100C60009DC040F48033B9F38833F9F6809337029E
:100C700085ECB0C0803509F485C0883509F496C08C
:100C8000883499F60E94B002D0CF883909F48CC01C
:100C900038F5883729F050F4883611F0803729F676
:100CA00083E080936A021092360257C0883809F4B4
:100CB0007BC0803919F0803809F0B7CF80913602B7
:100CC000803208F071C0E091360281E08E0F80938F
:100CD00036028091BB00F0E0EA5EFD4F80833DC0AC
:100CE000803B39F0E0F4803A09F479C0883A09F0A1
:100CF0009CCF84E080936A02109215021092140235
:100D0000E0916602F09167020995809114028111C9
:100D10000FC081E0809314021092F40109C0803C5E
:100D200009F4A6CF883C09F4A3CF883B09F07DCF16
:100D3000E091150281E08E0F80931502F0E0EC50F7
:100D4000FE4F80818093BB00909115028091140228
:100D500029C080915A028093BB0085EC8093BC002F
:100D600064CF9091590280915802981758F5E091FC
:100D7000590281E08E0F80935902F0E0E85CFD4F4C
:100D80008081E9CFE091590281E08E0F8093590272
:100D90008091BB00F0E0E85CFD4F808390915902A8
:100DA000809158029817C8F285E8D8CFE09159028F
:100DB00081E08E0F809359028091BB00F0E0E85CE7
:100DC000FD4F80838091690281115CCF81E0809327
:100DD000680284EA8093BC0010926A0226CF85ECF8
:100DE0008093BC0010926A0280913602803230F407
:100DF000E0913602F0E0EA5EFD4F1082609136022B
:100E000070E0E0916402F091650286E192E009955C
:100E1000109236020ACF1092370234CFE0E8F2E0A7
:100E20001382128288EE93E0A0E0B0E08483958381
:100E3000A683B78324E131E03183208325EC30E0C1
:100E40003587248724EC30E03787268720EC30E094
:100E5000318B208B21EC30E0338B228B22EC30E085
:100E6000358B248B26EC30E0378B268B118E128E3F
:100E7000138E148EEDE1F3E0138212828483958346
:100E8000A683B78386E291E091838083E9E2F3E071
:100E90001382128288E391E09183808387E28483C6
:100EA00084E1818784E0828713860895CF93DF935E
:100EB000CDB7DEB72C970FB6F894DEBF0FBECDBF0F
:100EC000789484B5826084BD84B5816084BD85B525
:100ED000826085BD85B5816085BD80916E00816031
:100EE00080936E00109281008091810082608093D7
:100EF00081008091810081608093810080918000D9
:100F00008160809380008091B10084608093B10003
:100F10008091B00081608093B00080917A008460FD
:100F200080937A0080917A00826080937A00809129
:100F30007A00816080937A0080917A008068809343
:100F40007A001092C10010926E0210926D021092FF
:100F50006C0210926B0210926A0281E08093690227
:100F60001092680282E10E94CD0183E10E94CD01CE
:100F70008091B9008E7F8093B9008091B9008D7FF8
:100F80008093B90088E48093B80085E48093BC0026
:100F90008CE890E090936702809366028DE890E081
:100FA000909365028093640210922E038091330324
:100FB000823018F098E090932E038093310362E31F
:100FC00070E080E090E00E9472026091340389E258
:100FD00093E00E94670368EE73E080E090E00E9477
:100FE000720260E389E293E00E94CF030BE416E40F
:100FF000C8010197F1F760E389E293E00E94CF0313
:10100000C8010197F1F760E389E293E00E94CF0302
:1010100083E592E00197F1F760E289E293E00E94B4
:10102000CF0360912E03606240E089E293E00E946A
:10103000E80384E080932F0340E06CE089E293E0D2
:101040000E94E80340E061E089E293E00E94E80347
:101050000BE31FE1C8010197F1F782E0D82ED0928F
:10106000300340E066E089E293E00E94E80340E05C
:1010700062E089E293E00E94E803C8010197F1F77A
:1010800088E08093340360E089E293E00E94670384
:1010900060E083E00E94FF03E0919002F0919102F2
:1010A000D082E0918C02F0918D021082E0918E024C
:1010B000F0918F028FEC808310929802E09194025D
:1010C000F091950286E08083E0919202F091930284
:1010D000808180618083E0919202F091930280810F
:1010E00088608083E0919202F09193028081806811
:1010F0008083E0919202F091930280818F7D8083C2
:1011000062E08EE00E941C0262E08FE00E941C02FE
:1011100062E080E10E941C0261E084E10E941C0206
:1011200098EE892E93E0992EA12CB12C20E0C22EAE
:1011300020E0D22E80E10E94F301892BB9F40091C6
:101140000001109101010F5F1F4F109301010093E7
:10115000000164E670E080E090E00E9472020230DC
:10116000110524F0109201011092000180910001FC
:1011700090910101009769F0019709F49FC0C11493
:10118000D104C1F20E9401018823A1F20E94000053
:10119000D1CF8EE00E94F301892B09F040C00E945C
:1011A000A40260937C0270937D0280937E029093F0
:1011B0007F020E94A4020E94E70460E471E0CE0175
:1011C00001960E94040569E471E0CE0107960E9431
:1011D0000405E12CF12C87019E012F5F3F4F40E079
:1011E00050E0BA01CE0107960E94AE04CE010796E8
:1011F0000E94FC04CE0101960E94FC040E94A402FD
:10120000AB01BC012AE080E892E00E94380442E091
:1012100050E060E571E080E892E00E948E008FE08F
:101220000E94F301892B09F0AACF0E94A402009129
:101230007C0210917D0220917E0230917F02601B22
:10124000710B820B930B60937802709379028093F9
:101250007A0290937B020E94A4020E94E7044090CD
:1012600078025090790260907A0270907B0263E578
:1012700071E0CE0101960E94040565E571E0CE01A2
:1012800007960E940405C301B201A50194010E94C2
:10129000650A29017B018C019E012F5F3F4FBA0136
:1012A000A201CE0107960E94AE04CE0107960E94CD
:1012B000FC04CE0101960E94FC0461CF8EE00E94E6
:1012C000F301892B69F581E0809377020E94A402E3
:1012D0002B013C014092730250927402609275029D
:1012E00070927602DC01CB0184589A4EAF4FBF4F0B
:1012F00080936F0290937002A0937102B093720278
:1013000068E571E0CE0101960E940405B301A201D7
:10131000CE0101960E949104CE0101960E94FC0428
:101320008FE00E94F301892B51F5109277022090F3
:101330006F0230907002409071025090720263E62A
:1013400071E0CE0101960E940405B201A101CE0117
:1013500001960E949104CE0101960E94FC048091A6
:101360006F0290917002A0917102B091720280930D
:10137000730290937402A0937502B09376028091E9
:101380007702882309F4FBCE40916F0250917002DE
:101390006091710270917202809173029091740257
:1013A000A0917502B091760284179507A607B7073A
:1013B00050F164E771E0CE0101960E94040560E0FF
:1013C00080E00E94FF03CE0101960E94BB00CE0187
:1013D00001960E94FC04209078023090790240909F
:1013E0007A0250907B0266E871E0CE0101960E947D
:1013F0000405B201A101CE0101960E949104CE0123
:1014000001960E94FC04809177028111B8CE6EE9AA
:1014100071E0CE0101960E94040560E080E00E9428
:10142000FF03CE0101960E94BB00CE0101960E94EF
:10143000FC04209078023090790240907A0250901B
:101440007B026BEA71E0CE0101960E940405B201B5
:10145000A101CE0101960E9491042BCF2F923F92C1
:101460004F925F926F927F928F929F92AF92BF92B4
:10147000CF92DF92EF92FF920F931F93CF93DF9360
:10148000CDB7DEB7CA1BDB0B0FB6F894DEBF0FBEBD
:10149000CDBF09942A88398848885F846E847D840A
:1014A0008C849B84AA84B984C884DF80EE80FD800C
:1014B0000C811B81AA81B981CE0FD11D0FB6F89482
:1014C000DEBF0FBECDBFED010895A1E21A2EAA1B0B
:1014D000BB1BFD010DC0AA1FBB1FEE1FFF1FA217E4
:1014E000B307E407F50720F0A21BB30BE40BF50BE1
:1014F000661F771F881F991F1A9469F7609570956A
:10150000809590959B01AC01BD01CF010895EE0F30
:10151000FF1F0590F491E02D09940F931F93CF9333
:10152000DF938230910510F482E090E0E091370380
:10153000F091380330E020E0B0E0A0E0309799F47B
:101540002115310509F44AC0281B390B2430310517
:10155000D8F58A819B816115710589F1FB0193831F
:101560008283FE0111C0408151810281138148179D
:101570005907E0F04817590799F4109761F012964F
:101580000C93129713961C933296CF01DF91CF9153
:101590001F910F9108950093370310933803F4CFF0
:1015A0002115310551F04217530738F0A901DB012D
:1015B0009A01BD01DF01F801C1CFEF01F9CF90938E
:1015C000380380933703CDCFFE01E20FF31F8193E1
:1015D00091932250310939832883D7CF2091350345
:1015E00030913603232B41F4209104013091050101
:1015F000309336032093350320910201309103018B
:101600002115310541F42DB73EB7409106015091A7
:101610000701241B350BE0913503F0913603E217E7
:10162000F307A0F42E1B3F0B2817390778F0AC0105
:101630004E5F5F4F2417350748F04E0F5F1F5093E2
:10164000360340933503819391939FCFF0E0E0E020
:101650009CCFCF93DF930097E9F0FC013297138280
:101660001282A0913703B0913803ED0130E020E001
:101670001097A1F420813181820F931F20913503AF
:10168000309136032817390709F061C0F09336030B
:10169000E0933503DF91CF910895EA01CE17DF077C
:1016A000E8F54A815B819E0141155105B1F7E901D9
:1016B000FB83EA8349915991C40FD51FEC17FD07AD
:1016C00061F4808191810296840F951FE9019983CD
:1016D0008883828193819B838A83F0E0E0E0129685
:1016E0008D919C9113970097B9F52D913C9111978D
:1016F000CD010296820F931F20913503309136035E
:101700002817390739F6309751F51092380310929F
:101710003703B0933603A0933503BCCFD383C28382
:1017200040815181840F951FC817D90761F44E5F1E
:101730005F4F88819981480F591F518340838A8167
:101740009B81938382832115310509F0B0CFF093FB
:101750003803E09337039ECFFD01DC01C0CF138235
:101760001282D7CFB0E0A0E0E8EBFBE00C94300AA7
:101770008C01009751F4CB010E948D0A8C01C801A5
:10178000CDB7DEB7E0E10C944C0AFC01E60FF71F81
:101790009C0122503109E217F30708F49DC0D901DA
:1017A000CD91DC911197C617D70798F0C530D105B8
:1017B00030F3CE0104978617970708F3C61BD70BA3
:1017C0002297C193D1936D937C93CF010E94290BF3
:1017D000D6CF5B01AC1ABD0A4C018C0E9D1EA091A8
:1017E0003703B0913803512C412CF12CE12C109788
:1017F00031F580913503909136038815990509F0EC
:101800005CC04616570608F058C0809102019091BE
:101810000301009741F48DB79EB7409106015091A6
:101820000701841B950BE817F90708F055C0F093E2
:101830003603E0933503F90171836083A0CF8D9166
:101840009C91119712966C90129713967C90139717
:10185000A815B90559F56C0142E0C40ED11CCA1493
:10186000DB0420F1AC014A195B09DA0112961597E5
:1018700080F06282738251834083D9016D937C939F
:10188000E114F10471F0D7011396FC93EE931297D3
:1018900076CF22968C0F9D1FF90191838083F301EF
:1018A000EFCFF0933803E093370369CF481659061A
:1018B00008F42C017D01D3019ACFCB010E948D0A3F
:1018C0007C01009749F0AE01B8010E946F0CC8017D
:1018D0000E94290B870153CF10E000E050CFFB019D
:1018E000DC0102C001900D9241505040D8F708959C
:1018F000FB01DC0101900D920020E1F70895F894BE
:02190000FFCF17
:101902000100000039038000000040001400540070
:101912000000000037018E00C4008401F500D300EE
:10192200E7000000000038030B03CC03E1020403CC
:10193200F102E2020000000032048E00CC03CB036D
:10194200202053544F5020200053746172742000A1
:101952000D0A002C005320005374617274204F64EE
:101962006C200053746F70206F646C69637A616ECF
:10197200696120006B6F6E696563206F646C6963D7
:101982007A616E6961005A616B6FC584637A6F6EAA
:1019920065206F646C69637A616E696520004E69C7
:1019A20065206F646C69637A616D00776369C59BBA
:0219B200200013
:00000001FF
